S018000054656D70617475726541546D656761382E73726563EE
S113000012C021C020C01FC01EC01DC01CC01BC008
S11300101AC019C018C017C088C015C014C013C0B6
S113002012C011C010C011241FBECFE5D4E0DEBF42
S1130030CDBF20E0A0E6B0E001C01D92A836B20713
S1130040E1F7CED039C2DCCF9598969888BB979AC1
S1130050979883EF91E00197F1F700C000000895AD
S1130060959A969888BB979A979883EF91E0019711
S1130070F1F700C00000089514BA87E886B980EC4F
S113008087B90895CF92DF92EF92FF920F931F9357
S1130090CF93DF93682F70E080E090E0F5D020E00C
S11300A030E040E85EE356D16B017C01BCD0C3E68E
S11300B0D0E00AE010E0CB01B801D7D1605D6883DD
S11300C0805D89838EE28A8320E030E040E251E45F
S11300D0C701B6013FD1A7D0CB01B801C6D1805D1D
S11300E08B8320E030E048EC52E4C701B60132D102
S11300F09AD0CB01B801B9D1805D8C8308E610E0B9
S11301008991AEDFC017D107D9F78FEF80936000D4
S113011087E2A6DF83E4A4DFDF91CF911F910F91E3
S1130120FF90EF90DF90CF9008951F920F920FB63B
S11301300F9211242F933F934F935F936F937F9369
S11301408F939F93AF93BF93EF93FF93809161003D
S113015090916200853091058CF4209160002223F7
S113016069F09C012F5F3F4F309362002093610040
S1130170FC01ED59FF4F80818CB921C00597F9F43A
S1130180109260001092620010926100369A349BC3
S1130190FECF88E390E058DF8EE090E055DF81E009
S11301A090E052DF84B195B190E06CDF2FE38DE0F5
S11301B093E0215080409040E1F700C00000FF919F
S11301C0EF91BF91AF919F918F917F916F915F91CB
S11301D04F913F912F910F900FBE0F901F90189544
S11301E08FEF87BB80EF81BB47DF369A349BFECF0E
S11301F088E32ADF8EE028DF81E026DF84B195B131
S113020041DF2FE38DE093E0215080409040E1F7FF
S113021000C0000088E28AB986E880BD10BC83E390
S113022089B97894FFCF04D06894B1118DC0089532
S113023070D088F09F5790F0B92F9927B751A0F04C
S1130240D1F0660F771F881F991F1AF0BA95C9F766
S113025012C0B13081F077D0B1E0089574C0672F37
S1130260782F8827B85F39F0B93FCCF38695779516
S11302706795B395D9F73EF49095809570956195FF
S11302807F4F8F4F9F4F0895E89409C097FB3EF42A
S113029090958095709561957F4F8F4F9F4F9923CF
S11302A0A9F0F92F96E9BB279395F695879577954D
S11302B06795B795F111F8CFFAF4BB0F11F460FF0D
S11302C01BC06F5F7F4F8F4F9F4F16C0882311F065
S11302D096E911C0772321F09EE8872F762F05C079
S11302E0662371F096E8862F70E060E02AF09A9514
S11302F0660F771F881FDAF7880F9695879597F909
S1130300089557FD9058440F551F59F05F3F71F001
S11303104795880F97FB991F61F09F3F79F0879568
S11303200895121613061406551FF2CF4695F1DFF1
S113033008C0161617061806991FF1CF8695710581
S1130340610508940895E894BB2766277727CB01B5
S113035097F908950BD078C069D028F06ED018F0C2
S1130360952309F05AC05FC01124EECFCADFA0F371
S1130370959FD1F3950F50E0551F629FF001729F36
S1130380BB27F00DB11D639FAA27F00DB11DAA1F55
S1130390649F6627B00DA11D661F829F2227B00DA2
S11303A0A11D621F739FB00DA11D621F839FA00D2D
S11303B0611D221F749F3327A00D611D231F849F7D
S11303C0600D211D822F762F6A2F11249F575040D4
S11303D08AF0E1F088234AF0EE0FFF1FBB1F661F6F
S11303E0771F881F91505040A9F79E3F510570F028
S11303F014C0AACF5F3FECF3983EDCF38695779563
S11304006795B795F795E7959F5FC1F7FE2B880F22
S1130410911D9695879597F9089597F99F6780E8B8
S113042070E060E008959FEF80EC089500240A9442
S11304301616170618060906089500240A941216BB
S11304401306140605060895092E0394000C11F4EE
S1130450882352F0BB0F40F4BF2B11F460FF04C09B
S11304606F5F7F4F8F4F9F4F089597FB072E16F4B2
S1130470009406D077FD08D00BD007FC05D03EF4DD
S1130480909581959F4F0895709561957F4F08953C
S1130490AA1BBB1B51E107C0AA1FBB1FA617B707A6
S11304A010F0A61BB70B881F991F5A95A9F78095C2
S10F04B09095BC01CD010895F894FFCF95
S9030000FC
