:100000000C94E4040C9401050C9401050C94010576
:100010000C9401050C9401050C9401050C94010548
:100020000C9401050C9401050C9401050C94010538
:100030000C9401050C94220A0C9401050C94010502
:100040000C9401050C9401050C9401050C94010518
:100050000C940105C1C1C1C10000C2C2FEFE010075
:10006000C3C31F1F0100C4C4FCFC0100C5C5C5C536
:100070000101C6BDBFBE0101C7C7C0C00100C88223
:1000800084830101C9C9FDFD0100CA85878601017C
:10009000CB888A890101CC8BCC8B0101CD8CCD8C96
:1000A0000101CE11CE110101CFCF13130100D0D029
:1000B0008F8F0100D1D11B1B0100D2D29191010081
:1000C000D39294930101D49597960101D5179A99EB
:1000D0000101D69B9D9C0101D7D7D7D70000D8D866
:1000E0009E9E0101D9D99F9F0101DAA0A2A1010121
:1000F000DBA3A5A40101DCDCDCDC0000DDA6A8A7F5
:100100000101DEA9ABAA0101DFACAEAD0101E0E067
:10011000E0E00000E1AFB1B00101E2E2E2E20000A4
:10012000E3B2B4B30101E4B5B7B60101E5B8BAB9B9
:100130000101E6E6BCBC0100E7E7E7E70000E8E80C
:10014000E8E80000E9E9E9E90000EAEAEAEA000093
:10015000EBEBEBEB0000ECBDBFBE0101EDBDBFBEA4
:100160000101EEEEEEEE0000EFEFEFEF0000F0F039
:10017000F0F00000F1F1F1F10000F2F2F2F2000013
:10018000F3F3F3F30000F5F5F5F50000F6F6F6F6F7
:100190000000F7F7F7F70000F8F8F8F80000FBF9AF
:1001A000FBFA0101BBBBF4F40100811C1E1D01011F
:1001B00090181A1901019814161501018E8E121249
:1001C00001008D108D1001010000000000000000F2
:1001D000000000000000000000000000000000001F
:1001E000000000000000000000000000000000000F
:1001F00000000000000000000000000000000000FF
:1002000000000000000000000000000000000000EE
:1002100000000000000000000000000000000000DE
:1002200000000000000000000000000000000000CE
:1002300000000000000000000000000000000000BE
:1002400000000000000000002020282868B0602086
:100250002020282A2830202000808044322420209A
:10026000002424243820202020202020242A1100AB
:10027000202020242A11202030202020242A112070
:10028000202030203028281820242221242A110060
:10029000242221242A11202030242221242A112042
:1002A000008080403020202020202060A060283066
:1002B00020202060B060202000302860A060302026
:1002C0000004061D2524202000000000000000007E
:1002D00000004F00000000000007000700000000C1
:1002E00000147F147F14000000242A7F2A120000CB
:1002F00000231308646200000036495522400000C4
:100300000000050300000000001C22410000000066
:100310000041221C000000000014083E08140000E8
:100320000008083E0808000000002818000000002F
:10033000000808080808080000303000000000002D
:100340000020100804020000003E5149453E000014
:100350000000427F40000000004261514946000019
:10036000002141454B310000001814127F1000009D
:100370000000274545453900003C4A494930000006
:1003800000017109050300000036494949360000A3
:1003900000064949291E0000000036360000000012
:1003A0000000563600000000000814224100000042
:1003B000002424242424000000004122140800000A
:1003C000000201510906000000324979413E000057
:1003D000007E1111117E0000007F4949493600005E
:1003E000003E414141220000007F4141221C0000AB
:1003F000007F494949410000007F090909010000C7
:10040000003E4149493A0000007F0808087F00008B
:100410000000417F41000000002040413F010000FA
:10042000007F081422410000007F4040404000004F
:10043000007F020C027F0000007F0408107F000094
:10044000003E4141413E0000007F090909060000CD
:100450003E4151215E000000007F0919294600003D
:1004600000464949493100000001017F01010000B7
:10047000003F4040403F0000001F2040201F000080
:10048000003F4060403F0000006314081463000018
:10049000000708700807000000615149454300004B
:1004A000007F4141000000000015167C1615000079
:1004B0000041417F0000000000040201020400002E
:1004C00000404040404000000001020400000000E5
:1004D0000020545454780000007F44444438000005
:1004E000003844444400000000384444487F000081
:1004F000003854545418000000107E11010200000E
:10050000000C5252523E0000007F080404780000A4
:100510000000447D40000000002040403D000000FD
:10052000007F1028440000000000417F40000000D0
:10053000007C041804780000007C080404780000A3
:100540000038444444380000007C141414080000AF
:1005500000081414187C0000007C08040408000043
:10056000004854545420000000043F444020000040
:10057000003C4040207C0000001C2040201C00006B
:10058000001E2010201E000000221408142200006B
:1005900000064848483E0000004464544C440000B3
:1005A00000083641000000000000007F000000004D
:1005B00000413608000000000008082A1C0800005E
:1005C00000081C2A08080000003C4241423C000090
:1005D00000302860A060283020202020A020283073
:1005E00020202020B020202000302820A0203020F3
:1005F00020202022202228302020202230222020CB
:1006000000302822202230202020202221222830C1
:1006100020202022312220200030282221223020B8
:100620002020282828B020202020282828302020FA
:1006300000C0A82868B06020000080804432040018
:10064000002425243820202030242221242A1100AF
:10065000008080403420202020202038203820189E
:1006600020203820382038206080807820382018DA
:100670002020203822392218202038223922382000
:10068000608080782239221830202020242A11000E
:10069000203020302828382060808060302828389A
:1006A0002020302030282A1820302030282A3820D6
:1006B0006080806030282A3820203E30282838206A
:1006C00020203E30282A38202020202030282800D2
:1006D00020202030282820200040A0B028282020DA
:1006E0002020202030282A0020202030282A2020E6
:1006F0000040A0B0282A20202020202030282A30A6
:10070000202030282A3020200018202030282A30AD
:1007100020202020302A28322020302A2832202071
:10072000608080B2A87A202022252525252525193C
:100730002020201C2221202030282C2A203F20206D
:100740002020202020201F00202020201F202020CB
:10075000003040403F2020202020202030484830DA
:100760002020304848302020804030484830202029
:100770002020202022201800202020201A202020A5
:10078000304044403020202020202030283A2C18AF
:10079000202030283A2C382000181414182020204B
:1007A0000021222428100F0000B0A878202020204B
:1007B000202020A020A02830202020A030A0202011
:1007C00000608080A0501020001E202020202020CB
:1007D0000020302828200000000402023A02020112
:1007E000000004063D050400000004B6AD7D0400D1
:1007F000000080C0BFA0800004668595A8A84800BE
:100800000000003F0000000000302820A020283019
:100810000000302A28320000003028222022283010
:10082000003028222122283000C0A8A828B020208B
:1008300000C0A8A8A830202000C0A8AA28302020E6
:10084000000024242438000000002425243800005F
:1008500000808040300000000000808040340000B4
:1008600060808078203820186080807822392218B3
:1008700060808060302828186080806030282A18C6
:10088000002214081422000020203E3028281800DE
:1008900020203E30282A1800000040A0B028280060
:1008A000000040A0B02A2800202020202020202066
:1008B0000018202030282A3000608080B2A87A00FA
:1008C0000030282C2A203F000040A9AAA8F00000F0
:1008D00000006080807E00000040AAA9AAF000000D
:1008E0000000C02030282830000060808880600030
:1008F0000000302828300000000000B0A878000078
:100900000426252528100F000422222629100F0076
:1009100000212224A8D0AFA00070AAA9AA3000000C
:100920000070AAA8AA3000000030404050280800FB
:100930000030C040D028080000000279020000000A
:10094000000002780200000000000000000505051C
:1009500000000004030B0606A0A0A0000000000099
:1009600000000101010100000021222428102F2095
:10097000000000000004030300008080808000006D
:1009800000001010541010000000020402040200C5
:100990002024262525202830202426253520202007
:1009A000086C8A8AA050102004B6AD7D2420202037
:1009B00000191415182020200402021A22222120D6
:1009C000004060504850404011241FBECFE5D8E0A1
:1009D000DEBFCDBF12E0A0E6B0E0E4E7F7E202C080
:1009E00005900D92AA3DB107D9F722E0AAEDB2E039
:1009F00001C01D92A53EB207E1F70E94F10F0C94D1
:100A0000B8130C940000A99A00C00000A99800C077
:100A100000000895AA9AAB9A9798A8988FE38BBB89
:100A20000E94030508959798A8988034910518F4BA
:100A3000AA9AAB9803C0AB9AAA9880548F7380642B
:100A40008BBB0E94030508959798A8988770886BC0
:100A50008BBB0E9403050895CF93DF93EB010E94A7
:100A60001305CE010E942405DF91CF910895979A36
:100A7000A8988BBB00000E9403050895CF93DF93D5
:100A8000C82FD0E0BE0180E090E00E942C05BE019E
:100A900080E490E00E942C05AA9AC1E4D0E080E0B6
:100AA0000E9437052197D9F7DF91CF910895CF9311
:100AB000C0E08C2F0E943E05CF5FC830D1F7CF91A8
:100AC00008951ABAA89A979A803418F485B3846066
:100AD00002C085B38B7F85BBAA9B03C085B3877F8C
:100AE00002C085B3886085BB0000A99A0000A99860
:100AF00086E08A95F1F700C0A99A000089B3A99809
:100B000000009FEF9ABB0895CF92DF92EF92FF9281
:100B10000F931F93CF93DF93D82FD92E7B01C42E31
:100B20008B01169507951695079516950795B801AB
:100B30000E942C05CC2021F081E0C81691F020C045
:100B40008D2F0E94610597E0E922FF2421E030E02B
:100B500002C0220F331FEA94E2F72095C82FC22368
:100B60000FC08D2F0E94610597E0E922FF2421E04C
:100B700030E002C0220F331FEA94E2F7C82FC22BE5
:100B8000B8018D2F9D2D0E942C058C2F0E943705BA
:100B9000DF91CF911F910F91FF90EF90DF90CF9059
:100BA0000895AF92BF92CF92DF92EF92FF920F9390
:100BB000CF93DF935C01EB016B01C40ED51E6C1566
:100BC0007D0568F42F5FE22EF12C402FBE01C50198
:100BD0000E948405CE0DDF1DCC15DD05B0F3DF913D
:100BE000CF910F91FF90EF90DF90CF90BF90AF909B
:100BF00008952F923F924F925F926F927F928F92C1
:100C00009F92AF92BF92CF92DF92EF92FF920F939B
:100C10001F93CF93DF93CDB7DEB76B970FB6F894E2
:100C2000DEBF0FBECDBF3C012B015B8B4A8B2D83FA
:100C30000A8F1A894115510509F4E3C0449F9001B8
:100C4000459F300D300D11243D8B2C8B812C912C28
:100C5000B12CCB01A0E0B0E08E8B9F8BA88FB98F19
:100C6000BB8E1A872301202E3B01CC88DD889B8D0B
:100C7000999FC018D1081124E12CF12CC701B601AD
:100C80000E9460120E9432130E943112362E062FEB
:100C900010E0D801A60DB71DBA83A9836401C40C66
:100CA000D51C422DBD01C6010E9484057301E01AC6
:100CB000F10A422DB701C6010E9484055201A8180D
:100CC000B908422D69817A81C5010E948405422DAF
:100CD000B701C5010E948405BA858B2F90E0801B67
:100CE000910B7C0122F4EE24FF24E81AF90AE2E0D9
:100CF000EE16F1040CF474C06E897F89888D998D8D
:100D00000E94601269837A838B839C83632D70E0D9
:100D100080E090E00E9460126E837F8388879987CD
:100D2000FA856F2F70E080E090E00E9460126A8781
:100D30007B878C879D872E813F81488559850E94BE
:100D4000BC129B01AC0169817A818B819C810E94DC
:100D5000C51120E030E040E85FE30E94C5110E9429
:100D600031126E877F87888B998B21E0C21AD10858
:100D7000022D2D81A7016E857F85C6010E94D105B8
:100D80002E813F81488559856A857B858C859D8527
:100D90000E949D129B01AC0169817A818B819C81AB
:100DA0000E94C4110E94311269837A838B839C83D1
:100DB0002D81A70169817A81C6010E94D1053FEF8B
:100DC000A31AB30A2D81A7016E857F85C5010E94F4
:100DD000D1052D81A70169817A81C5010E94D105C4
:100DE0008B8D8F5F8B8F882E912C3A86AA89BB8939
:100DF0008A169B0608F439CFA32CC30132012C01BB
:100E000002C0812C912CB12C7301B1E0EB1AF108D6
:100E1000E80CF91C0A8D2D81A501B201C7010E94C1
:100E2000D1056201CA18DB080A8D2D81A501B60122
:100E3000C7010E94D1057301EFEFEE1AFE0AE81810
:100E4000F9080A8D2D81A501B201C7010E94D105C3
:100E50000A8D2D81A501B601C7010E94D1056B96AF
:100E60000FB6F894DEBF0FBECDBFDF91CF911F91BB
:100E70000F91FF90EF90DF90CF90BF90AF909F9039
:100E80008F907F906F905F904F903F902F9008953C
:100E90000F931F93CF93DF938C01CB01EA010E9444
:100EA0001305CE010E942405000F111F000F111F12
:100EB000000F111FE801C853DE4F00531E4FFE0103
:100EC00084910E9437052196C017D107C1F7DF91A1
:100ED000CF911F910F9108954423E9F0E82FF92F46
:100EE00030E090E078E050E013C08081869560FDAE
:100EF00002C08C9302C080688C939F5F941302C0E1
:100F00006695952F215089F73F5F3196341719F078
:100F1000272FDF01EACF08952F923F924F925F92E1
:100F20006F927F928F929F92AF92BF92CF92DF92F9
:100F3000EF92FF920F931F93CF93DF93CDB7DEB75E
:100F4000C654D1090FB6F894DEBF0FBECDBF8C01D9
:100F5000862F972F1A01422E962E872E0E94130558
:100F60005101C1010E942405000F111F000F111F24
:100F7000000F111FC80188539E4F7C01FE0131965E
:100F80002396FFAFEEAF23976E01F1E4CF0ED11C95
:100F900023960EAD1FAD2397F7016491442DC80130
:100FA0000E946C07FFEFEF1AFF0A085F1F4F0C1536
:100FB0001D0591F7442009F462C066246A94640C0C
:100FC000712C8FEF681A780AF501E60DF71D279648
:100FD000FFAFEEAF2797512C24969FAE249725960E
:100FE0008FAE25973AC00034110529F4B10180E491
:100FF00090E00E942C05F70180810E9437050F5F69
:101000001F4F0C151D0579F7F8E0EF0EF11CA40C2D
:10101000B51C8E149F0429F06501C60CD71C8501F0
:10102000E2CF8FEF281A380AB10124968FAD2497AA
:1010300025969FAD25970E942C052396EEADFFAD1A
:10104000239731962396FFAFEEAF239727968EAD69
:101050009FAD27972816390691F023968EAC9FAC4A
:10106000239790E4890E911C2496AFAC2497259683
:10107000BFAC25972396EEACFFAC2397CDCFCA5BD0
:10108000DF4F0FB6F894DEBF0FBECDBFDF91CF911B
:101090001F910F91FF90EF90DF90CF90BF90AF9096
:1010A0009F908F907F906F905F904F903F902F9088
:1010B0000895EF92FF920F931F93CF93DF93C82F62
:1010C000D62FF72E142FE52E213009F085C08E384B
:1010D00079F030F4813809F484C08D3859F00CC0AF
:1010E000803921F0883909F47EC006C0CBEF7CC07E
:1010F000CDEF7AC0CEEF78C0C13C08F48AC080C082
:10110000815C9109FC01EE0FFF1FE80FF91FEE0F44
:10111000FF1FE75AFF4FE491EE2359F12C2F30E0E7
:10112000215C3109F901EE0FFF1FE20FF31FEE0FF3
:10113000FF1FE85AFF4FE491EE23D9F0FC01EE0FB8
:10114000FF1FE80FF91FEE0FFF1F8091E402E80F69
:10115000F11DEB5AFF4F84914091E20250E0609103
:10116000E30270E090E00E94480782E08093E4028E
:1011700004C01092E402C13CD8F08C2F90E0815C56
:101180009109FC01EE0FFF1FE80FF91FEE0FFF1F83
:101190008091E402E80FF11DEC5AFF4F8491202F5B
:1011A000412F5E2D6D2F7F2D90E00E948C0709C08E
:1011B000202F412F5E2D6D2F7F2D8C2F90E00E94D0
:1011C0008C078C2F90E09093690180936801D093F5
:1011D000E3021093E20220C0202F90E00E948C07CF
:1011E0001BC0CAEF01C0CCEF8091680190916901EA
:1011F000813C91050CF084CFBCCF1092E402BDCFAE
:101200008091680190916901813C91050CF078CF43
:10121000F4CF1092E402CCCFDF91CF911F910F91C8
:10122000FF90EF9008952F923F924F925F926F92AE
:101230007F928F929F92AF92BF92CF92DF92EF9266
:10124000FF920F931F93CF93DF93CDB7DEB729970C
:101250000FB6F894DEBF0FBECDBF6C0179876887EB
:101260002A0129830A830E2C000CFF08602E712CA2
:10127000C7010896869D4001879D900C969D900C15
:10128000112480E190E05C01A618B708AA0CBB1CF1
:10129000AA0CBB1CAA0CBB1C10E0212C312CFC821C
:1012A000EB82F22EE02E19C0F601E80FF91F0E2D89
:1012B00020E0A2016885798580810E9459082885EF
:1012C0003985280D391D39872887A216B30624F4DD
:1012D000460C571C288639861F5F812F90E0F60147
:1012E00001900020E9F73197EC19FD098E179F074F
:1012F00030F1EB80FC802224332426183708220C9E
:10130000331C220C331C220C331C88EF9FEF8E19E8
:101310009F09689EF001699EF00D789EF00D1124E2
:10132000FF83EE834301880C991C880C991C880C60
:10133000991CFFEF8F1A9F0AAB82BD823DC0FF2030
:1013400009F4B2CFEB80FC80D6CF7601E20EF31E1B
:10135000F7018081813E71F4F7019181973C09F496
:1013600042C0933C09F441C0923C09F440C0953C12
:1013700009F43FC0A884B984A20CB31C0A8121E0FF
:10138000A201B5010E945908F7018081803231F431
:10139000AE80BF8028853985A20EB31E1F5FB98637
:1013A000A886888599858815990534F4460C571CBC
:1013B0009B819887ED81E987212F30E0F60101902C
:1013C0000020E9F73197EC19FD092E173F0720F4AB
:1013D000F981F13009F4B9CF81EC90E09093690183
:1013E0008093680116C089EF05C087EE03C088EEC0
:1013F00001C089EE28853985220D331D398728875C
:101400000A8121E0A201688579850E9459081E5F42
:10141000C8CF29960FB6F894DEBF0FBECDBFDF91BF
:10142000CF911F910F91FF90EF90DF90CF90BF90E1
:10143000AF909F908F907F906F905F904F903F9074
:101440002F9008951F920F920FB60F921124EF92D2
:101450000F932F933F934F935F936F937F938F934C
:101460009F93AF93BF93EF93FF938091DA02909194
:10147000DB029C012F5F3F4F3093DB022093DA02A7
:101480004CB1FC01E05AFE4F408325303105A9F4F0
:101490008091DE029091DF02892B59F4E12C02E069
:1014A00020E043E050E068E070E080E691E00E94D8
:1014B00013091092DB021092DA02FF91EF91BF91B3
:1014C000AF919F918F917F916F915F914F913F91DC
:1014D0002F910F91EF900F900FBE0F901F901895C6
:1014E000009769F18130910561F18230910559F1E0
:1014F0008330910551F18430910549F18530910592
:1015000041F18630910539F18730910531F188300C
:10151000910529F18930910521F18A30910519F160
:101520008B30910511F18C30910509F18D309105C9
:1015300001F18E309105F9F00F97F9F0089580E0F0
:10154000089581E0089582E0089583E0089584E09D
:10155000089585E0089586E0089587E0089588E07D
:10156000089589E008958AE008958BE008958CE05D
:1015700008958DE008958EE008958FE008958E3EE1
:10158000C9F48091E0029091E102E091DC02F091D7
:10159000DD02EE0FFF1F82959295907F9827807F46
:1015A0009827E80FF91FEF59FF4F908181E08927B5
:1015B000808308958E3DC9F48091E0029091E1020C
:1015C000E091DC02F091DD02EE0FFF1F8295929513
:1015D000907F9827807F9827E80FF91FEF59FF4FDA
:1015E000908182E08927808308958E3BC9F48091A1
:1015F000E0029091E102E091DC02F091DD02EE0F59
:10160000FF1F82959295907F9827807F9827E80FFB
:10161000F91FEF59FF4F908184E089278083089557
:101620008E37C9F48091E0029091E102E091DC02F2
:10163000F091DD02EE0FFF1F82959295907F982723
:10164000807F9827E80FF91FEF59FF4F908188E0BE
:101650008927808308958D3EC9F48091E00290919E
:10166000E102E091DC02F091DD02EE0FFF1F8295B6
:101670009295907F9827807F9827E80FF91FEF5960
:10168000FF4F908180E18927808308958D3DC9F4C3
:101690008091E0029091E102E091DC02F091DD02A4
:1016A000EE0FFF1F82959295907F9827807F982755
:1016B000E80FF91FEF59FF4F908180E2892780835F
:1016C00008958D3BC9F48091E0029091E102E09190
:1016D000DC02F091DD02EE0FFF1F82959295907F64
:1016E0009827807F9827E80FF91FEF59FF4F9081C7
:1016F00080E48927808308958D37C1F48091E002CA
:101700009091E102E091DC02F091DD02EE0FFF1F0B
:1017100082959295907F9827807F9827E80FF91FF0
:10172000EF59FF4F80818058808308958B3EC9F424
:10173000E091E002F091E1028091DC029091DD0203
:10174000880F991FE295F295F07FFE27E07FFE2734
:10175000E80FF91FE05AFF4F908181E089278083CD
:1017600008958B3DC9F4E091E002F091E10280918F
:10177000DC029091DD02880F991FE295F295F07FCF
:10178000FE27E07FFE27E80FF91FE05AFF4F908108
:1017900082E08927808308958B3BC9F4E091E002C1
:1017A000F091E1028091DC029091DD02880F991F97
:1017B000E295F295F07FFE27E07FFE27E80FF91F04
:1017C000E05AFF4F908184E08927808308958B370A
:1017D000C9F4E091E002F091E1028091DC02909185
:1017E000DD02880F991FE295F295F07FFE27E07FDA
:1017F000FE27E80FF91FE05AFF4F908188E0892704
:1018000080830895873EC9F4E091E002F091E102FF
:101810008091DC029091DD02880F991FE295F2958C
:10182000F07FFE27E07FFE27E80FF91FE05AFF4F09
:10183000908180E1892780830895873DC9F4E091F4
:10184000E002F091E1028091DC029091DD02880FCC
:10185000991FE295F295F07FFE27E07FFE27E80FC3
:10186000F91FE05AFF4F908180E289278083089515
:10187000873BC9F4E091E002F091E1028091DC0243
:101880009091DD02880F991FE295F295F07FFE2777
:10189000E07FFE27E80FF91FE05AFF4F908180E4B8
:1018A0008927808308958737B9F4E091E002F091A9
:1018B000E1028091DC029091DD02880F991FE29590
:1018C000F295F07FFE27E07FFE27E80FF91FE05A30
:1018D000FF4F8081805880830895892BD9F4E0914F
:1018E000E002F091E1028091DC029091DD02E2954C
:1018F000F295F07FFE27E07FFE27880F991FE80F03
:10190000F91FE05AFF4F8081682381E090E0E1F009
:1019100080E00895E091E002F091E1028091DC0224
:101920009091DD02E295F295F07FFE27E07FFE27A1
:10193000880F991FE80FF91FE05AFF4F8181682334
:1019400081E090E009F080E008950F9361E081E08C
:1019500090E00E946D0C01E0282F43E050E064E12C
:1019600070E082E390E00E94F90560E181E090E0A0
:101970000E946D0C282F43E050E06EE170E082E39E
:1019800090E00E94F90561E080E090E00E946D0C1B
:10199000282F43E050E068E270E082E390E00E948C
:1019A000F90560E180E090E00E946D0C282F43E093
:1019B00050E062E370E082E390E00E94F90562E0AB
:1019C00081E090E00E946D0C282F43E050E064E13C
:1019D00070E08CE390E00E94F90560E281E090E025
:1019E0000E946D0C282F43E050E06EE170E08CE324
:1019F00090E00E94F90562E080E090E00E946D0CAA
:101A0000282F43E050E068E270E08CE390E00E9411
:101A1000F90560E280E090E00E946D0C282F43E021
:101A200050E062E370E08CE390E00E94F90564E02E
:101A300081E090E00E946D0C282F43E050E064E1CB
:101A400070E086E490E00E94F90560E481E090E0B7
:101A50000E946D0C282F43E050E06EE170E086E4B8
:101A600090E00E94F90564E080E090E00E946D0C37
:101A7000282F43E050E068E270E086E490E00E94A6
:101A8000F90560E480E090E00E946D0C282F43E0AF
:101A900050E062E370E086E490E00E94F90568E0BF
:101AA00081E090E00E946D0C282F43E050E064E15B
:101AB00070E080E590E00E94F90560E881E090E048
:101AC0000E946D0C282F43E050E06EE170E080E54D
:101AD00090E00E94F90568E080E090E00E946D0CC3
:101AE000282F43E050E068E270E080E590E00E943B
:101AF000F90560E880E090E00E946D0C282F43E03B
:101B000050E062E370E080E590E00E94F9050F91FB
:101B10000895EF92FF920F931F93CF93DF93EC0101
:101B20000F2EF0EFFF2EF02D1FE00E94570581EEE3
:101B300094E00197F1F700C00000E12C01E020E003
:101B400044E050E068E070E0CE010E94130920E01C
:101B500040E050E068E070E08AEA92E00E941309F9
:101B60000E94A50C80B3F7BA18BB26B3206F80B3D0
:101B7000869586958F718D3161F06DC0F7BA18BB6F
:101B800026B3206F90B3969596959F719D3109F07D
:101B900062C08091E0029091E1020E94700A98E098
:101BA000899FE00111248091DC029091DD020E9466
:101BB000700A8C2B41E050E020E030E004C02F5F41
:101BC0003F4F4F5F5F4F5D9BFECF8CB921153105B5
:101BD000B1F4E091E002F091E1028091DC02909199
:101BE000DD02E295F295F07FFE27E07FFE27880F69
:101BF000991FE80FF91FE05AFF4F808119C021306B
:101C00003105B1F4E091E002F091E1028091DC0253
:101C10009091DD02E295F295F07FFE27E07FFE27AE
:101C2000880F991FE80FF91FE05AFF4F8181C7CF36
:101C30004330510524F2C0E0D0E040E150E0BE0165
:101C4000CE01805A9F4F0E9497136096C11581E084
:101C5000D80799F70DC02F3F09F490CF17BA18BADB
:101C600017BBF8BA86B38F6082230E94BF0A5DCF8C
:101C700017BA18BA8FE087BB80EF88BB86B3DF91B5
:101C8000CF911F910F91FF90EF900895EF920F93D6
:101C90001F93CF93DF93CDB7DEB7C054D1090FB6F2
:101CA000F894DEBF0FBECDBF80E4EAE6F1E0DE01CE
:101CB000119601900D928A95E1F70E94570581EEE9
:101CC00094E00197F1F700C000008091DC02909150
:101CD000DD02880F991F880F991F880F991FE12C2B
:101CE00001E020E044E050E068E070E0E1E0F0E096
:101CF000EC0FFD1F8E0F9F1F0E94130920E040E094
:101D000050E06EE170E08AEB92E00E94130920E05F
:101D100047E050E06EE170E083EC92E00E9413092E
:101D200020E044E050E060E070E08EEC92E00E9441
:101D3000130920E044E050E068E770E080ED92E0B5
:101D40000E9413090E94A50C10B3169516951F71D9
:101D50001E31B9F48091E0029091E1020E94700A74
:101D6000F8E08F9FC0011124082F00688091DC02E9
:101D70009091DD020E94700A802B5D9BFECF8CB992
:101D8000C7C01D3109F420C11B3109F063C0809127
:101D9000DC029091DD02880F991F880F991F880F30
:101DA000991F21E030E02C0F3D1F820F931F0E94EE
:101DB000890D0E94570581EE94E00197F1F700C06C
:101DC00000008091DC029091DD02880F991F880F3E
:101DD000991F880F991FE12C01E020E044E050E0BA
:101DE00068E070E0E1E0F0E0EC0FFD1F8E0F9F1F58
:101DF0000E94130920E040E050E06EE170E08AEBC1
:101E000092E00E94130920E047E050E06EE170E0AC
:101E100083EC92E00E94130920E044E050E060E08F
:101E200070E08EEC92E00E94130920E044E050E064
:101E300068E770E080ED92E00E9413090E94A50C13
:101E4000FFE926E831E0F15020403040E1F700C0E2
:101E500000007ACF173109F05BC00E94570581EE70
:101E600094E00197F1F700C000008091DC029091AE
:101E7000DD0201968830910514F080E090E09093A7
:101E8000DD028093DC02880F991F880F991F880F4D
:101E9000991FE12C01E020E044E050E068E070E0B0
:101EA000E1E0F0E0EC0FFD1F8E0F9F1F0E94130971
:101EB00020E040E050E06EE170E08AEB92E00E94AA
:101EC000130920E047E050E06EE170E083EC92E01F
:101ED0000E94130920E044E050E060E070E08EECE6
:101EE00092E00E94130920E044E050E068E770E0CF
:101EF00080ED92E00E9413090E94A50CFFE926E8FC
:101F000031E0F15020403040E1F700C000001CCF2C
:101F10001F3009F019CF0E94570581EE94E0019718
:101F2000F1F700C000008091DC029091DD02019782
:101F300012F487E090E09093DD028093DC02880F3A
:101F4000991F880F991F880F991FE12C01E020E04D
:101F500044E050E068E070E0E1E0F0E0EC0FFD1FED
:101F60008E0F9F1F0E94130920E040E050E06EE1B9
:101F700070E08AEB92E00E94130920E047E050E015
:101F80006EE170E083EC92E00E94130920E044E0EF
:101F900050E060E070E08EEC92E00E94130920E0D7
:101FA00044E050E068E770E080ED92E00E941309A1
:101FB0000E94A50CFFE926E831E0F15020403040B6
:101FC000E1F700C00000C0CEC05CDF4F0FB6F89450
:101FD000DEBF0FBECDBFDF91CF911F910F91EF906C
:101FE0000895CF93DF93CDB7DEB7DA950FB6F894A7
:101FF000DEBF0FBECDBF80E0EAEAF1E0DE01119660
:1020000001900D928A95E1F78FEF8ABB80E881BB42
:1020100081B3837881BB82B38C6782BB8FE084BB42
:102020000E940A0588E98AB986E880BD83E389B9F8
:10203000789481B3837881BB82B38C6782BB00E0E4
:1020400010E040E150E0B801C801805A9F4F0E9463
:102050009713005F1F4F011521E0120791F700E071
:1020600010E040E150E0B801C801805A9F4F0E9443
:102070008713005F1F4F011581E0180791F71FEFCD
:102080000F2EFFE08F2EF02D912CB12CF12CCC24B3
:10209000C394D12CAA24AA9480B3869586958F7177
:1020A0008F3109F065C0112309F46CC18091DE0203
:1020B0009091DF02892BF1F40E945705E1EEF4E0E4
:1020C0003197F1F700C00000E12C02E020E043E08E
:1020D00050E068E070E080E691E00E94130901E0C2
:1020E00020E047E050E062E370E082ED92E00E9481
:1020F000130948C10E94570581EE94E00197F1F75A
:1021000000C000008091E0029091E10282959295DA
:10211000907F9827807F9827E12C02E020E043E021
:1021200050E068E070E0E1E0F0E0EC0FFD1F8E0FA2
:102130009F1F0E94130901E020E04B2D5F2D62E3F9
:1021400070E087ED92E00E94130920E044E050E047
:102150006B2D7F2D8EEC92E00E94130920E044E06D
:1021600050E068E770E080ED92E00E9413090AC138
:102170008E31E1F48091DE029091DF02019709F047
:102180008BCF0E94460E82B38C6782BBFFE926E8A4
:1021900081E0F15020408040E1F700C0000080B3B2
:1021A000D092DF02C092DE021A2D76CF8D3171F50A
:1021B0008091DE029091DF0201979093DF0280937D
:1021C000DE02892BF1F40E945705E1EEF4E031972D
:1021D000F1F700C00000E12C02E020E043E050E015
:1021E00068E070E080E691E00E94130901E020E0E1
:1021F00047E050E062E370E082ED92E00E94130954
:102200004BCFB092DE02F092DF0246CF8B3109F065
:102210004EC08091DE029091DF0201969093DF0222
:102220008093DE020197F1F50E94570581EE94E05C
:102230000197F1F700C000008091E0029091E10267
:1022400082959295907F9827807F9827E12C02E0D5
:1022500020E043E050E068E070E0E1E0F0E0EC0F07
:10226000FD1F8E0F9F1F0E94130901E020E04B2DE0
:102270005F2D62E370E087ED92E00E94130920E099
:1022800044E050E06B2D7F2D8EEC92E00E9413090C
:1022900020E044E050E068E770E080ED92E00E94CA
:1022A0001309FACED092DF02C092DE02F5CE87315A
:1022B000A1F58091DE029091DF02019709F0ECCE4A
:1022C0008091E0029091E10201968031910514F035
:1022D0008B2D9F2D9093E1028093E0028295929541
:1022E000907F9827807F9827E12C02E020E043E050
:1022F00050E068E070E0E1E0F0E0EC0FFD1F8E0FD1
:102300009F1F0E941309FFE926E881E0F150204059
:102310008040E1F700C00000BFCE8F3009F0BCCE96
:102320008091DE029091DF02019709F0B5CE809195
:10233000E0029091E102019712F4882D992D90937B
:10234000E1028093E00282959295907F9827807FAA
:102350009827E12C02E020E043E050E068E070E0E4
:10236000E1E0F0E0EC0FFD1F8E0F9F1F0E941309AC
:10237000FFE926E881E0F15020408040E1F700C00D
:1023800000008ACE10E088CE5058BB27AA270E94B2
:10239000DC110C94F2120E94E41238F00E94EB124D
:1023A00020F039F49F3F19F426F40C94E1120EF456
:1023B000E095E7FB0C94DB12E92F0E94031358F31E
:1023C000BA17620773078407950720F079F4A6F51A
:1023D0000C9425130EF4E0950B2EBA2FA02D0B01B3
:1023E000B90190010C01CA01A0011124FF27591B5A
:1023F00099F0593F50F4503E68F11A16F040A22F60
:10240000232F342F4427585FF3CF469537952795D0
:10241000A795F0405395C9F77EF41F16BA0B620BCF
:10242000730B840BBAF09150A1F0FF0FBB1F661F16
:10243000771F881FC2F70EC0BA0F621F731F841F59
:1024400048F4879577956795B795F7959E3F08F07F
:10245000B0CF9395880F08F09927EE0F9795879541
:1024600008950E940B1388F09F5798F0B92F992771
:10247000B751B0F0E1F0660F771F881F991F1AF06F
:10248000BA95C9F714C0B13091F00E942513B1E09C
:1024900008950C942513672F782F8827B85F39F09B
:1024A000B93FCCF3869577956795B395D9F73EF408
:1024B00090958095709561957F4F8F4F9F4F0895B0
:1024C000E89409C097FB3EF49095809570956195CE
:1024D0007F4F8F4F9F4F9923A9F0F92F96E9BB2784
:1024E0009395F695879577956795B795F111F8CF00
:1024F000FAF4BB0F11F460FF1BC06F5F7F4F8F4F6B
:102500009F4F16C0882311F096E911C0772321F060
:102510009EE8872F762F05C0662371F096E8862FF8
:1025200070E060E02AF09A95660F771F881FDAF74F
:10253000880F9695879597F90895990FBB0B550FBE
:10254000AA0BE0E8FEEF16161706E807F90770F089
:1025500012161306E407F50760F0BA173CF049F4C9
:102560006217730784079507A7951BF4B901CA0181
:10257000BA2FB69597950895990FBB0B550FAA0BD7
:10258000E0E8FEEF16161706E807F90770F01216D6
:102590001306E407F50760F0BA1754F031F4261774
:1025A000370748075907A7951BF4B901CA01BA2F85
:1025B000B6959795089597F99F6780E870E060E079
:1025C00008959FEF80EC089500240A9416161706CC
:1025D00018060906089500240A9412161306140614
:1025E00005060895092E0394000C11F4882352F077
:1025F000BB0F40F4BF2B11F460FF04C06F5F7F4F2F
:102600008F4F9F4F089557FD9058440F551F59F015
:102610005F3F71F04795880F97FB991F61F09F3FCF
:1026200079F087950895121613061406551FF2CFF8
:102630004695F1DF08C0161617061806991FF1CF48
:1026400086957105610508940895E894BB2766276F
:102650007727CB0197F9089519F416F40C94E11239
:102660000C9472130E940B13B8F39923C9F3B6F3B9
:102670009F57550B87FF0E9480130024A0E640EA75
:10268000900180585695979528F4805C660F771FC7
:10269000881F20F026173707480730F4621B730B9A
:1026A000840B202931294A2BA695179407942025BD
:1026B00031254A2758F7660F771F881F20F0261705
:1026C0003707480730F4620B730B840B200D311D64
:1026D000411DA09581F7B901842F9158880F9695D7
:1026E000879508959F3F31F0915020F48795779515
:1026F0006795B795880F911D9695879597F90895D9
:1027000091505040660F771F881FD2F70895DC0163
:10271000CB01FC01E199FECF06C0FFBBEEBBE09A06
:1027200031960DB20D9241505040B8F70895DC013A
:10273000A40FB51F4150504048F0CB01840F951FA6
:102740002E910E94A81341505040D0F70895262F93
:10275000E199FECF9FBB8EBBE09A01970DB20216A6
:1027600031F02DBB0FB6F894E29AE19A0FBE0895AE
:04277000F894FFCF0B
:10277400000102030405060700010203040506071D
:10278400000102030405060700010203040506070D
:1027940000010203040506070001020304050607FD
:1027A40000010203040506070001020304050607ED
:1027B40000010203040506070001020304050607DD
:1027C40000010203040506070001020304050607CD
:1027D40000010203040506070001020304050607BD
:1027E40000010203040506070001020304050607AD
:1027F400000102030405060700010203040506079D
:10280400000102030405060700010203040506078C
:10281400000102030405060700010203040506077C
:10282400000102030405060700010203040506076C
:10283400000102030405060700010203040506075C
:10284400000102030405060700010203040506074C
:10285400000102030405060700010203040506073C
:10286400000102030405060700010203040506072C
:1028740030302E3030274300C100506174310000E5
:102884000000506174320000000050617433000095
:102894000000506174340000000050617435000081
:1028A400000050617436000000005061743700006D
:1028B400000050617438000000004D6963726F308D
:1028C400310000000000000000004D6963726F30A9
:1028D400320000000000000000004D6963726F3098
:1028E400330000000000000000004D6963726F3087
:1028F400340000000000000000004D6963726F3076
:10290400350000000000000000004D6963726F3064
:10291400360000000000000000004D6963726F3053
:10292400370000000000000000004D6963726F3042
:10293400380000000000000000004D6963726F3031
:10294400390000000000000000004D6963726F311F
:10295400300000000000000000004D6963726F3118
:10296400310000000000000000004D6963726F3107
:10297400320000000000000000004D6963726F31F6
:10298400330000000000000000004D6963726F31E5
:10299400340000000000000000004D6963726F31D4
:1029A400350000000000000000004D6963726F31C3
:1029B40036000000000000000000557028536176C6
:1029C400652026204261636B2900557028426163AB
:1029D4006B2900446F776E284564697429003C00B4
:0A29E4003E00446F776E005570004E
:00000001FF
