S01400004C6967687441746D656761382E7372656391
S113000012C02CC02BC02AC029C028C027C026C0BB
S113001025C024C023C074C021C020C01FC01EC07E
S11300201DC01CC01BC011241FBECFE5D4E0DEBF21
S1130030CDBF11E0A0E6B0E0E6E3F4E002C0059035
S11300400D92A236B107D9F721E0A2E6B1E001C0D2
S11300501D92AA38B207E1F723D1EBC1D1CF88238F
S1130060F9F0813001F1823009F1833011F18430EB
S113007019F1853021F1863029F1873031F188304A
S113008039F1893041F18A3049F18B3051F18C30AA
S113009059F18D3061F18E3069F18F3071F108952D
S11300A080E090E0089581E090E0089582E090E09F
S11300B0089583E090E0089584E090E0089585E059
S11300C090E0089586E090E0089587E090E0089538
S11300D088E090E0089589E090E008958AE090E057
S11300E008958BE090E008958CE090E008958DE011
S11300F090E008958EE090E008958FE090E00895F8
S11301001F920F920FB60F9211240F931F932F93E8
S11301103F934F935F936F937F938F939F93AF938B
S1130120BF93CF93EF93FF93CCB1CC230CF049C092
S113013080916000882309F45BC08C2F8695869596
S113014086958F708CDF8C01909387018093860154
S11301508C2F877084DF9093850180938401F8014C
S1130160EE0FFF1FEC59FE4F918380839C01220FF9
S1130170331F02951295107F1027007F1027F80176
S1130180E20FF31FEF59FF4F4081409388010F594D
S11301901F4FF801E20FF31F81818093890148BB4F
S11301A08091890185BB8091890182BB82B38E6372
S11301B082BB40E150E060E071E084E691E019D157
S11301C05BC080916000882399F0109260008C2FAE
S11301D08695869586958F7042DF909387018093EC
S11301E086018C2F87703BDF909385018093840177
S11301F020916201309163012130310549F4C093AB
S1130200880182E090E0909363018093620134C09E
S11302102230310521F5C093890120918601309166
S113022087018091840190918501880F991F2295FF
S11302303295307F3227207F3227F901E80FF91FEA
S1130240EF59FF4F4091880140832F593F4FF901E7
S1130250E80FF91FC1838FEF8093600009C02F5FFF
S11302603F4F30936301209362012330310521F421
S11302701092630110926201FF91EF91CF91BF91AF
S1130280AF919F918F917F916F915F914F913F912A
S11302902F911F910F910F900FBE0F901F901895E3
S11302A08FEF87BB84BB11BA8F9A8E9A82B38E6309
S11302B082BBC0E0D0E040E150E0BE01CE018F59E6
S11302C09F4F97D06096C11581E0D807A1F7C0E091
S11302D0D0E040E150E0BE01CE018F599F4F79D06C
S11302E06096C11591E0D907A1F740E150E060E0C4
S11302F071E084E691E07DD040E150E060E071E09F
S113030084E691E066D080E98AB986E880BD83E31B
S113031089B97894E12CF12C0E2D1F2D80B3809592
S1130320869586958F709BDEFC01EE0FFF1FEC59BE
S1130330FE4F20813181220F331F82959295907F49
S11303409827807F9827FC01E20FF31FEF59FF4F96
S113035040818F599F4FFC01E20FF31F818148BBFD
S113036085BB82BB82B38E6382BB8199D7CFCE2DEE
S1130370DF2D80B38095869586958F7070DE9E0103
S1130380220F331F82959295907F9827807F98271C
S1130390FC01E20FF31FEF59FF4F40818F599F4F2C
S11303A0FC01E20FF31F818148BB85BB82BB82B392
S11303B08E6382BB2196C830D10511F4C02FD12F92
S11303C087EA91E60197F1F700C00000819BD1CF45
S11303D0A5CFDC01CB01FC01E199FECF06C0FFBB38
S11303E0EEBBE09A31960DB20D9241505040B8F7F1
S11303F00895DC01A40FB51F4150504040F0CB01DB
S1130400840F951F2E9105D041505040D8F7089580
S1130410262FE199FECF9FBB8EBBE09A01970DB2C8
S1130420021631F02DBB0FB6F894E29AE19A0FBE92
S10904300895F894FFCFCB
S1130436FF00010203040506070001020304050682
S1130446070001020304050607000102030405066A
S1130456070001020304050607000102030405065A
S1130466070001020304050607000102030405064A
S1130476070001020304050607000102030405063A
S1130486070001020304050607000102030405062A
S1130496070001020304050607000102030405061A
S11304A6070001020304050607000102030405060A
S11304B607000102030405060700010203040506FA
S11304C607000102030405060700010203040506EA
S11304D607000102030405060700010203040506DA
S11304E607000102030405060700010203040506CA
S11304F607000102030405060700010203040506BA
S113050607000102030405060700010203040506A9
S11305160700010203040506070001020304050699
S11305260700010203040506070001020304050689
S10505360700B8
S9030000FC
